S014000054454D505F50524F4A4543542E7372656364
S11300000C9434000C9449000C9449000C9449005D
S11300100C9449000C9449000C9449000C94490038
S11300200C9449000C9449000C9449000C94490028
S11300300C9449000C9449000C9449000C94490018
S11300400C9449000C9449000C9449000C94490008
S11300500C9449000C9449000C9449000C944900F8
S11300600C9449000C94490011241FBECFEFD8E032
S1130070DEBFCDBF11E0A0E0B1E0E0EAFAE002C0EB
S113008005900D92AC30B107D9F70E94AB010C94E6
S11300904E050C94000085B1886085B985E08A9589
S11300A0F1F7000085B1877F85B987EC90E001976F
S11300B0F1F700C0000008959BB1937C9BB983FFC6
S11300C003C09BB194609BB982FF03C09BB198604D
S11300D09BB981FF03C09BB190619BB980FF03C0B2
S11300E08BB180628BB90E944B000895CF93C82FC7
S11300F0613021F485B1806185B903C085B18F7EFB
S113010085B98C2F82958F700E945C008C2F8F7024
S11301100E945C00CF910895CF93C82F60E00E94A5
S11301207600C150C23030F48FE39FE10197F1F7BC
S113013000C00000CF91089561E00E947600089508
S1130140882311F090E401C090E0862F8F70890F0E
S113015080680E948C000895CF93DF93EC0103C064
S113016021960E949C0088818111FACFDF91CF9162
S1130170089584B1806184B984B1886084B98AB1F6
S11301808C638AB92FEF89EF90E021508040904032
S1130190E1F700C0000085B18F7E85B985B1877F06
S11301A085B983E00E945C008FE19EE40197F1F73A
S11301B000C0000083E00E945C0087E592E00197A4
S11301C0F1F700C0000083E00E945C0087E592E044
S11301D00197F1F700C0000082E00E945C0087E50F
S11301E092E00197F1F700C0000088E20E948C00C1
S11301F088E00E948C0081E00E948C0086E00E94CE
S11302008C008CE00E948C0008951F93CF93DF93A1
S113021000D000D000D0CDB7DEB7AC01892B91F56A
S113022080E30E949C003FC09A01ADECBCEC0E94AC
S11302302B059695879596958795969587959C0118
S1130240220F331F880F991F880F991F880F991F3A
S1130250820F931F9A01281B390BC901E1E0F0E0DA
S1130260EC0FFD1FE10FF11D805D80839A010E9458
S11302702B05AC0156954795569547955695479548
S11302801F5F01C010E04115510571F60AC01150FD
S1130290E1E0F0E0EC0FFD1FE10FF11D80810E9411
S11302A09C001111F4CF26960FB6F894DEBF0FBE52
S11302B0CDBFDF91CF911F9108958F929F92AF92FE
S11302C0BF92CF92DF92EF92FF92CF93DF936B01B5
S11302D07C0120E030E0A9010E94460388233CF41D
S11302E08DE20E949C00F7FAF094F7F8F094C701AD
S11302F0B6010E94C4034B015C0180E090E00E94BF
S1130300F3039B01AC01C701B6010E94D90220E0AE
S113031030E048EC52E40E94AA040E94C4036B013A
S11303207C01EB01C4010E9405018EE20E949C0045
S11303302A9718F480E30E949C00C6010E940501DC
S1130340DF91CF91FF90EF90DF90CF90BF90AF906F
S11303509F908F9008950E94B9000E94B5028AB1BF
S113036080648AB984B1846084B987B1877F87B98E
S1130370ECE7F0E080818F778083808180648083E4
S113038080818F7D80838081816080838081826091
S1130390808380818B7F80838081877F8083EAE76D
S11303A0F0E08081806880838081846080838081A4
S11303B0826080838081816080831092C50087E69B
S11303C08093C400E2ECF0E080818F7780838081A9
S11303D08F7D80838081866080838081877F808316
S11303E0E1ECF0E0808188608083EAE7F0E08081DE
S11303F08064808380917A0084FFFCCFEAE7F0E098
S1130400808180618083E0907800F090790060E0E2
S113041080E00E94A00080E091E00E94AC0060E0D7
S113042081E00E94A000B70180E090E00E94F30305
S11304302EE230E940EA5BE30E94AA042AE037EDA9
S113044043E25CE30E944B036B017C010E945D016B
S11304502FEF83ED90E3215080409040E1F700C0FE
S1130460000020E030E04CE052E4C701B6010E94F5
S1130470460388232CF480E090E00E94D00240C020
S113048020E030E04CE052E4C701B6010E94A5042C
S113049018167CF420E030E048E452E4C701B601C9
S11304A00E94460318162CF08EE190E00E94D002C0
S11304B027C020E030E048E452E4C701B6010E94BE
S11304C0A50418167CF420E030E04CE852E4C7019F
S11304D0B6010E94460318162CF08CE390E00E94AB
S11304E0D0020EC020E030E04CE852E4C701B6016F
S11304F00E94A504181624F484E690E00E94D00219
S113050020E030E040EA52E4C701B6010E94A504AD
S11305108823E4F0C701B6010E94BD036093C600BE
S11305208091C00086FFFCCFE0ECF0E08081806425
S113053080832FEF83ED90E3215080409040E1F7DA
S113054000C0000085B1846085B94FCF20E030E061
S113055040EA52E4C701B6010E94460388230CF026
S113056044CF85B18B7F85B940CF8AB180648AB985
S113057084B5816084BD84B5826084BD84B58F7B7D
S113058084BD84B5806884BD85B58B7F85BD85B504
S1130590826085BD85B5816085BD8AE987BD089582
S11305A020E0982F822F64E670E00E94170567BD53
S11305B008955058BB27AA270E94F1020C946B049B
S11305C00E945D0438F00E94640420F039F49F3FD7
S11305D019F426F40C945A040EF4E095E7FB0C94F9
S11305E05404E92F0E947C0458F3BA176207730776
S11305F08407950720F079F4A6F50C949E040EF474
S1130600E0950B2EBA2FA02D0B01B90190010C011E
S1130610CA01A0011124FF27591B99F0593F50F436
S1130620503E68F11A16F040A22F232F342F44278E
S1130630585FF3CF469537952795A795F040539586
S1130640C9F77EF41F16BA0B620B730B840BBAF056
S11306509150A1F0FF0FBB1F661F771F881FC2F7C1
S11306600EC0BA0F621F731F841F48F487957795D5
S11306706795B795F7959E3F08F0B0CF9395880F8F
S113068008F09927EE0F9795879508950E943004F6
S113069008F481E008950E945F030C946B040E94A7
S11306A0640458F00E945D0440F029F45F3F29F08F
S11306B00C94540451110C949F040C945A040E94F9
S11306C07C0468F39923B1F3552391F3951B550BDF
S11306D0BB27AA2762177307840738F09F5F5F4F11
S11306E0220F331F441FAA1FA9F335D00E2E3AF050
S11306F0E0E832D091505040E695001CCAF72BD068
S1130700FE2F29D0660F771F881FBB1F26173707B8
S11307104807AB07B0E809F0BB0B802DBF01FF27EA
S113072093585F4F3AF09E3F510578F00C9454046F
S11307300C949F045F3FE4F3983ED4F38695779539
S11307406795B795F7959F5FC9F7880F911D9695A3
S1130750879597F90895E1E0660F771F881FBB1FFF
S1130760621773078407BA0720F0621B730B840BAC
S1130770BA0BEE1F88F7E09508950E94C4036894AD
S1130780B1110C949F0408950E94840488F09F572B
S113079098F0B92F9927B751B0F0E1F0660F771FA1
S11307A0881F991F1AF0BA95C9F714C0B13091F097
S11307B00E949E04B1E008950C949E04672F782F44
S11307C08827B85F39F0B93FCCF38695779567955C
S11307D0B395D9F73EF490958095709561957F4FC8
S11307E08F4F9F4F0895E89409C097FB3EF490956E
S11307F08095709561957F4F8F4F9F4F9923A9F0F6
S1130800F92F96E9BB279395F69587957795679584
S1130810B795F111F8CFFAF4BB0F11F460FF1BC0C8
S11308206F5F7F4F8F4F9F4F16C0882311F096E95B
S113083011C0772321F09EE8872F762F05C0662309
S113084071F096E8862F70E060E02AF09A95660FC2
S1130850771F881FDAF7880F9695879597F908957B
S1130860990F0008550FAA0BE0E8FEEF16161706BD
S1130870E807F907C0F012161306E407F50798F025
S1130880621B730B840B950B39F40A2661F0232B3E
S1130890242B252B21F408950A2609F4A140A695BA
S11308A08FEF811D811D089597F99F6780E870E09F
S11308B060E008959FEF80EC089500240A941616D2
S11308C0170618060906089500240A94121613063A
S11308D0140605060895092E0394000C11F48823C8
S11308E052F0BB0F40F4BF2B11F460FF04C06F5FE4
S11308F07F4F8F4F9F4F089557FD9058440F551FBA
S113090059F05F3F71F04795880F97FB991F61F08D
S11309109F3F79F087950895121613061406551F04
S1130920F2CF4695F1DF08C0161617061806991F70
S1130930F1CF86957105610508940895E894BB2765
S113094066277727CB0197F908950E94300408F4AD
S11309508FEF08950E94BD040C946B040E945D0403
S113096038F00E94640420F0952311F00C94540490
S11309700C945A0411240C949F040E947C0470F378
S1130980959FC1F3950F50E0551F629FF001729F30
S1130990BB27F00DB11D639FAA27F00DB11DAA1F3F
S11309A0649F6627B00DA11D661F829F2227B00D8C
S11309B0A11D621F739FB00DA11D621F839FA00D17
S11309C0611D221F749F3327A00D611D231F849F67
S11309D0600D211D822F762F6A2F11249F575040BE
S11309E09AF0F1F088234AF0EE0FFF1FBB1F661F39
S11309F0771F881F91505040A9F79E3F510580F002
S1130A000C9454040C949F045F3FE4F3983ED4F395
S1130A10869577956795B795F795E7959F5FC1F7A5
S1130A20FE2B880F911D9695879597F9089597FB4E
S1130A30072E16F4009407D077FD09D00E943A05DA
S1130A4007FC05D03EF4909581959F4F08957095CD
S1130A5061957F4F0895A29FB001B39FC001A39FEA
S1130A60700D811D1124911DB29F700D811D1124E3
S1130A70911D0895AA1BBB1B51E107C0AA1FBB1FF0
S1130A80A617B70710F0A61BB70B881F991F5A9516
S1130A90A9F780959095BC01CD010895F894FFCFF6
S10F0AA054454D504552415455524500F8
S9030000FC
